{
  "contractName": "DCS_Scratch",
  "abi": [
    {
      "inputs": [
        {
          "internalType": "uint256",
          "name": "amount",
          "type": "uint256"
        }
      ],
      "stateMutability": "nonpayable",
      "type": "constructor"
    },
    {
      "anonymous": false,
      "inputs": [
        {
          "indexed": true,
          "internalType": "address",
          "name": "tokenOwner",
          "type": "address"
        },
        {
          "indexed": true,
          "internalType": "address",
          "name": "spender",
          "type": "address"
        },
        {
          "indexed": false,
          "internalType": "uint256",
          "name": "tokens",
          "type": "uint256"
        }
      ],
      "name": "Approval",
      "type": "event"
    },
    {
      "anonymous": false,
      "inputs": [
        {
          "indexed": true,
          "internalType": "address",
          "name": "from",
          "type": "address"
        },
        {
          "indexed": true,
          "internalType": "address",
          "name": "to",
          "type": "address"
        },
        {
          "indexed": false,
          "internalType": "uint256",
          "name": "tokens",
          "type": "uint256"
        }
      ],
      "name": "Transfer",
      "type": "event"
    },
    {
      "inputs": [],
      "name": "decimals",
      "outputs": [
        {
          "internalType": "uint8",
          "name": "",
          "type": "uint8"
        }
      ],
      "stateMutability": "view",
      "type": "function",
      "constant": true
    },
    {
      "inputs": [],
      "name": "name",
      "outputs": [
        {
          "internalType": "string",
          "name": "",
          "type": "string"
        }
      ],
      "stateMutability": "view",
      "type": "function",
      "constant": true
    },
    {
      "inputs": [],
      "name": "symbol",
      "outputs": [
        {
          "internalType": "string",
          "name": "",
          "type": "string"
        }
      ],
      "stateMutability": "view",
      "type": "function",
      "constant": true
    },
    {
      "inputs": [],
      "name": "totalSupply",
      "outputs": [
        {
          "internalType": "uint256",
          "name": "",
          "type": "uint256"
        }
      ],
      "stateMutability": "view",
      "type": "function",
      "constant": true
    },
    {
      "inputs": [
        {
          "internalType": "address",
          "name": "tokenOwner",
          "type": "address"
        }
      ],
      "name": "balanceOf",
      "outputs": [
        {
          "internalType": "uint256",
          "name": "balance",
          "type": "uint256"
        }
      ],
      "stateMutability": "view",
      "type": "function",
      "constant": true
    },
    {
      "inputs": [
        {
          "internalType": "address",
          "name": "to",
          "type": "address"
        },
        {
          "internalType": "uint256",
          "name": "tokens",
          "type": "uint256"
        }
      ],
      "name": "transfer",
      "outputs": [
        {
          "internalType": "bool",
          "name": "success",
          "type": "bool"
        }
      ],
      "stateMutability": "nonpayable",
      "type": "function"
    },
    {
      "inputs": [
        {
          "internalType": "address",
          "name": "from",
          "type": "address"
        },
        {
          "internalType": "address",
          "name": "to",
          "type": "address"
        },
        {
          "internalType": "uint256",
          "name": "tokens",
          "type": "uint256"
        }
      ],
      "name": "transferFrom",
      "outputs": [
        {
          "internalType": "bool",
          "name": "success",
          "type": "bool"
        }
      ],
      "stateMutability": "nonpayable",
      "type": "function"
    },
    {
      "inputs": [
        {
          "internalType": "address",
          "name": "spender",
          "type": "address"
        },
        {
          "internalType": "uint256",
          "name": "tokens",
          "type": "uint256"
        }
      ],
      "name": "approve",
      "outputs": [
        {
          "internalType": "bool",
          "name": "success",
          "type": "bool"
        }
      ],
      "stateMutability": "nonpayable",
      "type": "function"
    }
  ],
  "bytecode": "0x608060405234801561001057600080fd5b50604051610d33380380610d33833981810160405281019061003291906100be565b8060008190555080600160003373ffffffffffffffffffffffffffffffffffffffff1673ffffffffffffffffffffffffffffffffffffffff16815260200190815260200160002081905550506100eb565b600080fd5b6000819050919050565b61009b81610088565b81146100a657600080fd5b50565b6000815190506100b881610092565b92915050565b6000602082840312156100d4576100d3610083565b5b60006100e2848285016100a9565b91505092915050565b610c39806100fa6000396000f3fe608060405234801561001057600080fd5b50600436106100885760003560e01c8063313ce5671161005b578063313ce5671461012957806370a082311461014757806395d89b4114610177578063a9059cbb1461019557610088565b806306fdde031461008d578063095ea7b3146100ab57806318160ddd146100db57806323b872dd146100f9575b600080fd5b6100956101c5565b6040516100a291906108cc565b60405180910390f35b6100c560048036038101906100c09190610987565b6101fe565b6040516100d291906109e2565b60405180910390f35b6100e36102f0565b6040516100f09190610a0c565b60405180910390f35b610113600480360381019061010e9190610a27565b6102f9565b60405161012091906109e2565b60405180910390f35b61013161058f565b60405161013e9190610a96565b60405180910390f35b610161600480360381019061015c9190610ab1565b610594565b60405161016e9190610a0c565b60405180910390f35b61017f6105dd565b60405161018c91906108cc565b60405180910390f35b6101af60048036038101906101aa9190610987565b610616565b6040516101bc91906109e2565b60405180910390f35b6040518060400160405280601181526020017f44435320546f6b656e205363726174636800000000000000000000000000000081525081565b600081600260003373ffffffffffffffffffffffffffffffffffffffff1673ffffffffffffffffffffffffffffffffffffffff16815260200190815260200160002060008573ffffffffffffffffffffffffffffffffffffffff1673ffffffffffffffffffffffffffffffffffffffff168152602001908152602001600020819055508273ffffffffffffffffffffffffffffffffffffffff163373ffffffffffffffffffffffffffffffffffffffff167f8c5be1e5ebec7d5bd14f71427d1e84f3dd0314c0f7b2291e5b200ac8c7c3b925846040516102de9190610a0c565b60405180910390a36001905092915050565b60008054905090565b600081600160008673ffffffffffffffffffffffffffffffffffffffff1673ffffffffffffffffffffffffffffffffffffffff168152602001908152602001600020546103469190610b0d565b600160008673ffffffffffffffffffffffffffffffffffffffff1673ffffffffffffffffffffffffffffffffffffffff1681526020019081526020016000208190555081600260008673ffffffffffffffffffffffffffffffffffffffff1673ffffffffffffffffffffffffffffffffffffffff16815260200190815260200160002060003373ffffffffffffffffffffffffffffffffffffffff1673ffffffffffffffffffffffffffffffffffffffff168152602001908152602001600020546104119190610b0d565b600260008673ffffffffffffffffffffffffffffffffffffffff1673ffffffffffffffffffffffffffffffffffffffff16815260200190815260200160002060003373ffffffffffffffffffffffffffffffffffffffff1673ffffffffffffffffffffffffffffffffffffffff1681526020019081526020016000208190555081600160008573ffffffffffffffffffffffffffffffffffffffff1673ffffffffffffffffffffffffffffffffffffffff168152602001908152602001600020546104dc9190610b41565b600160008573ffffffffffffffffffffffffffffffffffffffff1673ffffffffffffffffffffffffffffffffffffffff168152602001908152602001600020819055508273ffffffffffffffffffffffffffffffffffffffff168473ffffffffffffffffffffffffffffffffffffffff167fddf252ad1be2c89b69c2b068fc378daa952ba7f163c4a11628f55a4df523b3ef8460405161057c9190610a0c565b60405180910390a3600190509392505050565b601281565b6000600160008373ffffffffffffffffffffffffffffffffffffffff1673ffffffffffffffffffffffffffffffffffffffff168152602001908152602001600020549050919050565b6040518060400160405280600481526020017f444353530000000000000000000000000000000000000000000000000000000081525081565b6000600182101561065c576040517f08c379a000000000000000000000000000000000000000000000000000000000815260040161065390610be3565b60405180910390fd5b600160003373ffffffffffffffffffffffffffffffffffffffff1673ffffffffffffffffffffffffffffffffffffffff168152602001908152602001600020548211156106a857600080fd5b81600160003373ffffffffffffffffffffffffffffffffffffffff1673ffffffffffffffffffffffffffffffffffffffff168152602001908152602001600020546106f39190610b0d565b600160003373ffffffffffffffffffffffffffffffffffffffff1673ffffffffffffffffffffffffffffffffffffffff1681526020019081526020016000208190555081600160008573ffffffffffffffffffffffffffffffffffffffff1673ffffffffffffffffffffffffffffffffffffffff168152602001908152602001600020546107819190610b41565b600160008573ffffffffffffffffffffffffffffffffffffffff1673ffffffffffffffffffffffffffffffffffffffff168152602001908152602001600020819055508273ffffffffffffffffffffffffffffffffffffffff163373ffffffffffffffffffffffffffffffffffffffff167fddf252ad1be2c89b69c2b068fc378daa952ba7f163c4a11628f55a4df523b3ef846040516108219190610a0c565b60405180910390a36001905092915050565b600081519050919050565b600082825260208201905092915050565b60005b8381101561086d578082015181840152602081019050610852565b8381111561087c576000848401525b50505050565b6000601f19601f8301169050919050565b600061089e82610833565b6108a8818561083e565b93506108b881856020860161084f565b6108c181610882565b840191505092915050565b600060208201905081810360008301526108e68184610893565b905092915050565b600080fd5b600073ffffffffffffffffffffffffffffffffffffffff82169050919050565b600061091e826108f3565b9050919050565b61092e81610913565b811461093957600080fd5b50565b60008135905061094b81610925565b92915050565b6000819050919050565b61096481610951565b811461096f57600080fd5b50565b6000813590506109818161095b565b92915050565b6000806040838503121561099e5761099d6108ee565b5b60006109ac8582860161093c565b92505060206109bd85828601610972565b9150509250929050565b60008115159050919050565b6109dc816109c7565b82525050565b60006020820190506109f760008301846109d3565b92915050565b610a0681610951565b82525050565b6000602082019050610a2160008301846109fd565b92915050565b600080600060608486031215610a4057610a3f6108ee565b5b6000610a4e8682870161093c565b9350506020610a5f8682870161093c565b9250506040610a7086828701610972565b9150509250925092565b600060ff82169050919050565b610a9081610a7a565b82525050565b6000602082019050610aab6000830184610a87565b92915050565b600060208284031215610ac757610ac66108ee565b5b6000610ad58482850161093c565b91505092915050565b7f4e487b7100000000000000000000000000000000000000000000000000000000600052601160045260246000fd5b6000610b1882610951565b9150610b2383610951565b925082821015610b3657610b35610ade565b5b828203905092915050565b6000610b4c82610951565b9150610b5783610951565b9250827fffffffffffffffffffffffffffffffffffffffffffffffffffffffffffffffff03821115610b8c57610b8b610ade565b5b828201905092915050565b7f4e6f7420656e6f7567682045746865722070726f76696465642e000000000000600082015250565b6000610bcd601a8361083e565b9150610bd882610b97565b602082019050919050565b60006020820190508181036000830152610bfc81610bc0565b905091905056fea2646970667358221220eef7ffe6906529add905a0ac4aca87df8bc6ad1c01e70c9517adb3841134dbbe64736f6c634300080f0033",
  "immutableReferences": {},
  "source": "// SPDX-License-Identifier: MIT\npragma solidity >=0.4.22 <0.9.0;\n\ncontract DCS_Scratch {\n\n    string public constant name = \"DCS Token Scratch\";\n    string public constant symbol = \"DCSS\";\n    uint8 public constant decimals = 18;\n    uint _totalSupply;\n\n    // Balances for each account stored using a mapping\n    mapping(address => uint256) balances;\n\n    // Owner of the account approves the allowance of another account\n    // Create an allowance mapping\n    // The first key is the owner of the tokens\n    // In the 2nd mapping, its says who can spend on your behalf, and how many\n    // So, we are creating a mapping, where the kep is an address,\n    // The value is further a mapping of address to amount\n    mapping(address => mapping (address => uint256)) allowance;\n\n    event Transfer(address indexed from, address indexed to, uint tokens);\n    event Approval(address indexed tokenOwner, address indexed spender, uint tokens);\n\n\n    // Called automatically when contract is initiated\n    // Sets to total initial _totalSupply, as per the input argument\n    // Also gives the initial supply to msg.sender...who creates the contract\n    constructor(uint amount) {\n        _totalSupply = amount;\n         balances[msg.sender] = amount;\n    }\n\n    // Returns the total supply of tokens\n    function totalSupply() public view returns (uint256) {\n        return _totalSupply;\n    }\n\n    // Get the token balance for account `tokenOwner`\n    // Anyone can query and find the balance of an address\n    function balanceOf(address tokenOwner) public view returns (uint balance) {\n        return balances[tokenOwner];\n    }\n\n    // Transfer the balance from owner's account to another account\n    // Decreases the balance of \"from\" account\n    // Increases the balance of \"to\" account\n    // Emits Transfer event\n    function transfer(address to, uint tokens) public returns (bool success) {\n        if(tokens < 1){\n            revert(\"Not enough Ether provided.\");\n        }\n        require(tokens <= balances[msg.sender]);\n        balances[msg.sender] = balances[msg.sender] - tokens;\n        balances[to] = balances[to] + tokens;\n        emit Transfer(msg.sender, to, tokens);\n        return true;\n    }\n\n    // Send amount of tokens from address `from` to address `to`\n    // The transferFrom method is used to allow contracts to spend\n    // tokens on your behalf\n    // Decreases the balance of \"from\" account\n    // Decreases the allowance of \"msg.sender\"\n    // Increases the balance of \"to\" account\n    // Emits Transfer event\n    function transferFrom(address from, address to, uint tokens) public returns (bool success) {\n        balances[from] = balances[from] - tokens;\n        allowance[from][msg.sender] = allowance[from][msg.sender] - tokens;\n        balances[to] = balances[to] + tokens;\n        emit Transfer(from, to, tokens);\n        return true;\n    }\n\n    // Approves the `spender` to withdraw from your account, multiple times, up to the `tokens` amount.\n    // So the msg.sender is approving the spender to spend these many tokens\n    // from msg.sender's account\n    // Setting up allowance mapping accordingly\n    // Emits approval event\n    function approve(address spender, uint tokens) public returns (bool success) {\n        allowance[msg.sender][spender] = tokens;\n        emit Approval(msg.sender, spender, tokens);\n        return true;\n    }\n}",
  "sourcePath": "/home/isma/Desktop/code/blockchain/erc20-token/contracts/DCS_Scratch.sol",
  "compiler": {
    "name": "solc",
    "version": "0.8.15+commit.e14f2714.Emscripten.clang"
  },
  "schemaVersion": "3.4.8",
  "updatedAt": "2022-08-12T09:08:20.218Z",
  "networkType": "ethereum",
  "devdoc": {
    "kind": "dev",
    "methods": {},
    "version": 1
  },
  "userdoc": {
    "kind": "user",
    "methods": {},
    "version": 1
  }
}